{
  "contractName": "Lottery",
  "abi": [
    {
      "inputs": [],
      "stateMutability": "nonpayable",
      "type": "constructor"
    },
    {
      "inputs": [
        {
          "internalType": "uint256",
          "name": "",
          "type": "uint256"
        }
      ],
      "name": "lotteryHistory",
      "outputs": [
        {
          "internalType": "address",
          "name": "",
          "type": "address"
        }
      ],
      "stateMutability": "view",
      "type": "function",
      "constant": true
    },
    {
      "inputs": [],
      "name": "lotteryId",
      "outputs": [
        {
          "internalType": "uint256",
          "name": "",
          "type": "uint256"
        }
      ],
      "stateMutability": "view",
      "type": "function",
      "constant": true
    },
    {
      "inputs": [],
      "name": "owner",
      "outputs": [
        {
          "internalType": "address",
          "name": "",
          "type": "address"
        }
      ],
      "stateMutability": "view",
      "type": "function",
      "constant": true
    },
    {
      "inputs": [
        {
          "internalType": "uint256",
          "name": "",
          "type": "uint256"
        }
      ],
      "name": "players",
      "outputs": [
        {
          "internalType": "address payable",
          "name": "",
          "type": "address"
        }
      ],
      "stateMutability": "view",
      "type": "function",
      "constant": true
    },
    {
      "inputs": [],
      "name": "getBalance",
      "outputs": [
        {
          "internalType": "uint256",
          "name": "",
          "type": "uint256"
        }
      ],
      "stateMutability": "view",
      "type": "function",
      "constant": true
    },
    {
      "inputs": [],
      "name": "getPlayers",
      "outputs": [
        {
          "internalType": "address payable[]",
          "name": "",
          "type": "address[]"
        }
      ],
      "stateMutability": "view",
      "type": "function",
      "constant": true
    },
    {
      "inputs": [],
      "name": "enter",
      "outputs": [],
      "stateMutability": "payable",
      "type": "function",
      "payable": true
    },
    {
      "inputs": [],
      "name": "getRandomNumber",
      "outputs": [
        {
          "internalType": "uint256",
          "name": "",
          "type": "uint256"
        }
      ],
      "stateMutability": "view",
      "type": "function",
      "constant": true
    },
    {
      "inputs": [],
      "name": "getRandomNumberV2",
      "outputs": [
        {
          "internalType": "uint256",
          "name": "",
          "type": "uint256"
        }
      ],
      "stateMutability": "view",
      "type": "function",
      "constant": true
    },
    {
      "inputs": [],
      "name": "getRandomNumberV3",
      "outputs": [
        {
          "internalType": "uint256",
          "name": "",
          "type": "uint256"
        }
      ],
      "stateMutability": "view",
      "type": "function",
      "constant": true
    },
    {
      "inputs": [],
      "name": "pickWinner",
      "outputs": [],
      "stateMutability": "nonpayable",
      "type": "function"
    }
  ],
  "bytecode": "0x608060405234801561001057600080fd5b50336000806101000a81548173ffffffffffffffffffffffffffffffffffffffff021916908373ffffffffffffffffffffffffffffffffffffffff160217905550611009806100606000396000f3fe60806040526004361061009c5760003560e01c80638b5b9ccc116100645780638b5b9ccc146101765780638da5cb5b146101a1578063dbdff2c1146101cc578063e580f47b146101f7578063e97dcb6214610222578063f71d96cb1461022c5761009c565b806312065fe0146100a157806347b89533146100cc5780635d495aea146100f75780636793aa141461010e5780636d6fe23014610139575b600080fd5b3480156100ad57600080fd5b506100b6610269565b6040516100c39190610875565b60405180910390f35b3480156100d857600080fd5b506100e1610271565b6040516100ee9190610875565b60405180910390f35b34801561010357600080fd5b5061010c6102b1565b005b34801561011a57600080fd5b50610123610553565b6040516101309190610875565b60405180910390f35b34801561014557600080fd5b50610160600480360381019061015b91906108c1565b610589565b60405161016d919061092f565b60405180910390f35b34801561018257600080fd5b5061018b6105bc565b6040516101989190610a1a565b60405180910390f35b3480156101ad57600080fd5b506101b661064a565b6040516101c3919061092f565b60405180910390f35b3480156101d857600080fd5b506101e161066e565b6040516101ee9190610875565b60405180910390f35b34801561020357600080fd5b5061020c6106c2565b6040516102199190610875565b60405180910390f35b61022a6106c8565b005b34801561023857600080fd5b50610253600480360381019061024e91906108c1565b610776565b6040516102609190610a4b565b60405180910390f35b600047905090565b60006001436102809190610a95565b4042604051602001610293929190610b15565b6040516020818303038152906040528051906020012060001c905090565b60008054906101000a900473ffffffffffffffffffffffffffffffffffffffff1673ffffffffffffffffffffffffffffffffffffffff163373ffffffffffffffffffffffffffffffffffffffff161461033f576040517f08c379a000000000000000000000000000000000000000000000000000000000815260040161033690610b9e565b60405180910390fd5b600060018054905061034f61066e565b6103599190610bed565b90506001818154811061036f5761036e610c1e565b5b9060005260206000200160009054906101000a900473ffffffffffffffffffffffffffffffffffffffff1660036000600254815260200190815260200160002060006101000a81548173ffffffffffffffffffffffffffffffffffffffff021916908373ffffffffffffffffffffffffffffffffffffffff1602179055506002600081548092919061040090610c4d565b919050555060006001828154811061041b5761041a610c1e565b5b9060005260206000200160009054906101000a900473ffffffffffffffffffffffffffffffffffffffff1673ffffffffffffffffffffffffffffffffffffffff164760405161046990610cc6565b60006040518083038185875af1925050503d80600081146104a6576040519150601f19603f3d011682016040523d82523d6000602084013e6104ab565b606091505b50509050806104ef576040517f08c379a00000000000000000000000000000000000000000000000000000000081526004016104e690610d27565b60405180910390fd5b600067ffffffffffffffff81111561050a57610509610d47565b5b6040519080825280602002602001820160405280156105385781602001602082028036833780820191505090505b506001908051906020019061054e9291906107b5565b505050565b60004442600160405160200161056b93929190610e94565b6040516020818303038152906040528051906020012060001c905090565b60036020528060005260406000206000915054906101000a900473ffffffffffffffffffffffffffffffffffffffff1681565b6060600180548060200260200160405190810160405280929190818152602001828054801561064057602002820191906000526020600020905b8160009054906101000a900473ffffffffffffffffffffffffffffffffffffffff1673ffffffffffffffffffffffffffffffffffffffff16815260200190600101908083116105f6575b5050505050905090565b60008054906101000a900473ffffffffffffffffffffffffffffffffffffffff1681565b60008060009054906101000a900473ffffffffffffffffffffffffffffffffffffffff16426040516020016106a4929190610f15565b6040516020818303038152906040528051906020012060001c905090565b60025481565b662386f26fc100003411610711576040517f08c379a000000000000000000000000000000000000000000000000000000000815260040161070890610fb3565b60405180910390fd5b6001339080600181540180825580915050600190039060005260206000200160009091909190916101000a81548173ffffffffffffffffffffffffffffffffffffffff021916908373ffffffffffffffffffffffffffffffffffffffff160217905550565b6001818154811061078657600080fd5b906000526020600020016000915054906101000a900473ffffffffffffffffffffffffffffffffffffffff1681565b82805482825590600052602060002090810192821561082e579160200282015b8281111561082d5782518260006101000a81548173ffffffffffffffffffffffffffffffffffffffff021916908373ffffffffffffffffffffffffffffffffffffffff160217905550916020019190600101906107d5565b5b50905061083b919061083f565b5090565b5b80821115610858576000816000905550600101610840565b5090565b6000819050919050565b61086f8161085c565b82525050565b600060208201905061088a6000830184610866565b92915050565b600080fd5b61089e8161085c565b81146108a957600080fd5b50565b6000813590506108bb81610895565b92915050565b6000602082840312156108d7576108d6610890565b5b60006108e5848285016108ac565b91505092915050565b600073ffffffffffffffffffffffffffffffffffffffff82169050919050565b6000610919826108ee565b9050919050565b6109298161090e565b82525050565b60006020820190506109446000830184610920565b92915050565b600081519050919050565b600082825260208201905092915050565b6000819050602082019050919050565b6000610981826108ee565b9050919050565b61099181610976565b82525050565b60006109a38383610988565b60208301905092915050565b6000602082019050919050565b60006109c78261094a565b6109d18185610955565b93506109dc83610966565b8060005b83811015610a0d5781516109f48882610997565b97506109ff836109af565b9250506001810190506109e0565b5085935050505092915050565b60006020820190508181036000830152610a3481846109bc565b905092915050565b610a4581610976565b82525050565b6000602082019050610a606000830184610a3c565b92915050565b7f4e487b7100000000000000000000000000000000000000000000000000000000600052601160045260246000fd5b6000610aa08261085c565b9150610aab8361085c565b925082821015610abe57610abd610a66565b5b828203905092915050565b6000819050919050565b6000819050919050565b610aee610ae982610ac9565b610ad3565b82525050565b6000819050919050565b610b0f610b0a8261085c565b610af4565b82525050565b6000610b218285610add565b602082019150610b318284610afe565b6020820191508190509392505050565b600082825260208201905092915050565b7f796f75607265206e6f74206f776e657200000000000000000000000000000000600082015250565b6000610b88601083610b41565b9150610b9382610b52565b602082019050919050565b60006020820190508181036000830152610bb781610b7b565b9050919050565b7f4e487b7100000000000000000000000000000000000000000000000000000000600052601260045260246000fd5b6000610bf88261085c565b9150610c038361085c565b925082610c1357610c12610bbe565b5b828206905092915050565b7f4e487b7100000000000000000000000000000000000000000000000000000000600052603260045260246000fd5b6000610c588261085c565b91507fffffffffffffffffffffffffffffffffffffffffffffffffffffffffffffffff8203610c8a57610c89610a66565b5b600182019050919050565b600081905092915050565b50565b6000610cb0600083610c95565b9150610cbb82610ca0565b600082019050919050565b6000610cd182610ca3565b9150819050919050565b7f4661696c656420746f2073656e64204574686572000000000000000000000000600082015250565b6000610d11601483610b41565b9150610d1c82610cdb565b602082019050919050565b60006020820190508181036000830152610d4081610d04565b9050919050565b7f4e487b7100000000000000000000000000000000000000000000000000000000600052604160045260246000fd5b600081549050919050565b600081905092915050565b60008190508160005260206000209050919050565b610daa81610976565b82525050565b6000610dbc8383610da1565b60208301905092915050565b60008160001c9050919050565b600073ffffffffffffffffffffffffffffffffffffffff82169050919050565b6000610e08610e0383610dc8565b610dd5565b9050919050565b6000610e1b8254610df5565b9050919050565b6000600182019050919050565b6000610e3a82610d76565b610e448185610d81565b9350610e4f83610d8c565b8060005b83811015610e8757610e6482610e0f565b610e6e8882610db0565b9750610e7983610e22565b925050600181019050610e53565b5085935050505092915050565b6000610ea08286610afe565b602082019150610eb08285610afe565b602082019150610ec08284610e2f565b9150819050949350505050565b60008160601b9050919050565b6000610ee582610ecd565b9050919050565b6000610ef782610eda565b9050919050565b610f0f610f0a8261090e565b610eec565b82525050565b6000610f218285610efe565b601482019150610f318284610afe565b6020820191508190509392505050565b7f6d73672e76616c75652073686f756c642062652067726561746572207468616e60008201527f206f7220657175616c20746f20302e3031206574686572000000000000000000602082015250565b6000610f9d603783610b41565b9150610fa882610f41565b604082019050919050565b60006020820190508181036000830152610fcc81610f90565b905091905056fea26469706673582212200b9d0e000655d1e8deef42cac2121915e351a037a249028ad39a3b3d63200e5064736f6c634300080f0033",
  "immutableReferences": {},
  "source": "// SPDX-License-Identifier: MIT\npragma solidity ^0.8.15;\n\ncontract Lottery{\n    address public owner;\n    address payable[] public players;\n    uint256 public lotteryId;\n    mapping(uint256 => address) public lotteryHistory;\n\n    constructor(){\n        owner = msg.sender;\n    }\n\n    function getBalance() public view returns (uint256) {\n        return address(this).balance;\n    }\n\n    function getPlayers() public view returns (address payable[] memory) {\n        return players;\n    }\n\n    function enter() public payable{\n        require(msg.value > .01 ether, \"msg.value should be greater than or equal to 0.01 ether\");\n        players.push(payable(msg.sender));\n    }\n\n    function getRandomNumber() public view returns (uint256) {\n        return uint256(keccak256(abi.encodePacked(owner, block.timestamp)));\n    }\n\n    function getRandomNumberV2() public view returns (uint256) {\n        return uint256(keccak256(abi.encodePacked(block.difficulty, block.timestamp, players)));\n    }\n\n    function getRandomNumberV3() public view returns (uint256) {\n        return uint256(keccak256(abi.encodePacked(blockhash(block.number -1), block.timestamp)));\n    }\n\n    function pickWinner() public onlyOwner {\n        uint256 index = getRandomNumber() % players.length;\n\n        //address payable address .  . address > address payable\n        lotteryHistory[lotteryId] = players[index];\n        lotteryId++;\n\n        (bool success, ) = players[index].call{value: address(this).balance}(\"\");\n        require(success, \"Failed to send Ether\");\n\n        players = new address payable[](0);\n    }\n\n    //  modifier \n    modifier onlyOwner {\n        require(msg.sender == owner, \"you`re not owner\");\n        _; //modifier     \n    }\n}",
  "sourcePath": "/Users/choi/dev/blockchain/lottery-truffle/contracts/Lottery.sol",
  "compiler": {
    "name": "solc",
    "version": "0.8.15+commit.e14f2714.Emscripten.clang"
  },
  "schemaVersion": "3.4.12",
  "updatedAt": "2023-03-26T12:20:29.296Z",
  "networkType": "ethereum",
  "devdoc": {
    "kind": "dev",
    "methods": {},
    "version": 1
  },
  "userdoc": {
    "kind": "user",
    "methods": {},
    "version": 1
  }
}